:020000020000FC
:1000000048E04EBF4FEF4DBF40E04093000240E05C
:100010004093010240E04093020240E0409303021B
:1000200040E04093040240E04093050242E34093E5
:10003000060240E04093070240E04093080240E09F
:100040004093090240E040930A0240E040930B02D3
:1000500000900B0210900A0210922A0200922B02CA
:1000600000900902109008021092280200922902C2
:1000700000900702109006021092260200922702BA
:1000800000900502109004021092240200922502B2
:1000900000900302109002021092220200922302AA
:1000A00000900102109000021092200200922102A2
:1000B000E0E1F2E051EE67EB509310026093110221
:1000C00057E36EE942E1415071918191750F861FAE
:1000D000708381834A95C1F700241124222433249C
:1000E000E0E1F2E0C0E2D2E046E3020C131C7081D2
:1000F0008181070E181E63E0662339F0962F001CDD
:1001000017FA111C00F89A95D1F7000000821182AD
:10011000200C311C622D6F7078818981270E381E6A
:10012000662339F0962F221C37FA331C20F89A9553
:10013000D1F70000288239820E94D7030E94DE0393
:100140004A9599F60BE415E62DE63FE69FEF9AB93E
:1001500094B928984FD002D034D05BC093E30FD02D
:1001600049D092E30CD046D098E209D043D09CE02D
:1001700006D091E004D03ED096E001D00895E92F5A
:10018000E07FEBB9289A29982DD028982ED0E92F16
:10019000E295E07FEBB9289A25D0289826D00895DB
:1001A000E92FE07FEBB9299A289A1CD028981DD016
:1001B000E92FE295E07FEBB9289A14D0289815D062
:1001C0000895902FEDDF1BD0912FEADF18D0922FEA
:1001D000E7DF15D0932FE4DF12D0CCE010D0CA9522
:1001E000E9F708950000000008954AE5FBDF4A950D
:1001F000E9F70895D8E2F9DFDA95E9F708954FEFC6
:10020000DFEFE4E1EA95F1F7DA95D9F74A95C1F71E
:1002100008950000A4E1B2E0609110025091110233
:10022000160F051F6091120250911302360F251F01
:1002300048E06FE063237D918D91132702276623A9
:1002400039F0962F111F07FB001F10F99A95D1F76F
:100250000000170F081F6FE061237D918D913127FA
:100260002027662339F0962F331F27FB221F30F9F2
:100270009A95D1F70000370F281F4A95D1F69FEFC6
:100280009AB994B928984FD002D034D05BC093E388
:100290000FD049D092E30CD046D098E209D043D099
:1002A0009CE006D091E004D03ED096E001D00895C5
:1002B000E92FE07FEBB9289A29982DD028982ED0E5
:1002C000E92FE295E07FEBB9289A25D0289826D02F
:1002D0000895E92FE07FEBB9299A289A1CD0289835
:1002E0001DD0E92FE295E07FEBB9289A14D0289829
:1002F00015D00895902FEDDF1BD0912FEADF18D095
:10030000922FE7DF15D0932FE4DF12D0CCE010D08E
:10031000CA95E9F708950000000008954AE5FBDF5B
:100320004A95E9F70895D8E2F9DFDA95E9F70895F3
:100330004FEFDFEFE4E1EA95F1F7DA95D9F74A9567
:10034000C1F708950000A4E3B2E048E06FE0612344
:100350007E918E91381B270B662339F0962F2795B7
:1003600030FB379527F99A95D1F7000031272027E0
:100370006FE063237E918E91181B070B662339F083
:10038000962F079510FB179507F99A95D1F700005E
:10039000132702274A95D1F660911102509110025D
:1003A000151B060B6091130250911202351B260B90
:1003B0009FEF9AB994B928984FD002D034D05BC03F
:1003C00093E30FD049D092E30CD046D098E209D005
:1003D00043D09CE006D091E004D03ED096E001D01E
:1003E0000895E92FE07FEBB9289A29982DD0289815
:1003F0002ED0E92FE295E07FEBB9289A25D02898F6
:1004000026D00895E92FE07FEBB9299A289A1CD0CD
:1004100028981DD0E92FE295E07FEBB9289A14D0F7
:10042000289815D00895902FEDDF1BD0912FEADF8B
:1004300018D0922FE7DF15D0932FE4DF12D0CCE055
:1004400010D0CA95E9F708950000000008954AE524
:10045000FBDF4A95E9F70895D8E2F9DFDA95E9F785
:1004600008954FEFDFEFE4E1EA95F1F7DA95D9F778
:100470004A95C1F70895000000E310E328E330E354
:100480009FEF9AB994B928984FD002D034D05BC06E
:1004900093E30FD049D092E30CD046D098E209D034
:1004A00043D09CE006D091E004D03ED096E001D04D
:1004B0000895E92FE07FEBB9289A29982DD0289844
:1004C0002ED0E92FE295E07FEBB9289A25D0289825
:1004D00026D00895E92FE07FEBB9299A289A1CD0FD
:1004E00028981DD0E92FE295E07FEBB9289A14D027
:1004F000289815D00895902FEDDF1BD0912FEADFBB
:1005000018D0922FE7DF15D0932FE4DF12D0CCE084
:1005100010D0CA95E9F708950000000008954AE553
:10052000FBDF4A95E9F70895D8E2F9DFDA95E9F7B4
:1005300008954FEFDFEFE4E1EA95F1F7DA95D9F7A7
:100540004A95C1F708950000A4E1B2E0609110025D
:1005500050911102160F051F609112025091130263
:10056000360F251F48E06FE063237D918D9113279F
:100570000227662339F0962F111F07FB001F10F981
:100580009A95D1F70000170F081F6FE061237D9146
:100590008D9131272027662339F0962F331F27FBB3
:1005A000221F30F99A95D1F70000370F281F4A957E
:1005B000D1F69FEF9AB994B928984FD002D034D091
:1005C0005BC093E30FD049D092E30CD046D098E2C1
:1005D00009D043D09CE006D091E004D03ED096E014
:1005E00001D00895E92FE07FEBB9289A29982DD002
:1005F00028982ED0E92FE295E07FEBB9289A25D0F4
:10060000289826D00895E92FE07FEBB9299A289AF7
:100610001CD028981DD0E92FE295E07FEBB9289AED
:1006200014D0289815D00895902FEDDF1BD0912F6E
:10063000EADF18D0922FE7DF15D0932FE4DF12D036
:10064000CCE010D0CA95E9F70895000000000895A5
:100650004AE5FBDF4A95E9F70895D8E2F9DFDA9534
:10066000E9F708954FEFDFEFE4E1EA95F1F7DA9566
:10067000D9F74A95C1F708950000A4E3B2E048E035
:100680006FE061237E918E91381B270B662339F032
:10069000962F279530FB379527F99A95D1F70000CB
:1006A000312720276FE063237E918E91181B070B63
:1006B000662339F0962F079510FB179507F99A9541
:1006C000D1F70000132702274A95D1F66091110255
:1006D00050911002151B060B6091130250911202EB
:1006E000351B260B9FEF9AB994B928984FD002D0AA
:1006F00034D05BC093E30FD049D092E30CD046D006
:1007000098E209D043D09CE006D091E004D03ED0DE
:1007100096E001D00895E92FE07FEBB9289A299857
:100720002DD028982ED0E92FE295E07FEBB9289ABA
:1007300025D0289826D00895E92FE07FEBB9299A93
:10074000289A1CD028981DD0E92FE295E07FEBB9BC
:10075000289A14D0289815D00895902FEDDF1BD03B
:10076000912FEADF18D0922FE7DF15D0932FE4DF27
:1007700012D0CCE010D0CA95E9F70895000000002F
:1007800008954AE5FBDF4A95E9F70895D8E2F9DFD5
:10079000DA95E9F708954FEFDFEFE4E1EA95F1F735
:1007A000DA95D9F74A95C1F7089500002DCCE39565
:1007B000E39554E3E5130895E0E10895C395C395E7
:0A07C0005CE0C5130895C0E208953F
:00000001FF
